{
  "contractName": "SCeleitaContract",
  "abi": [
    {
      "constant": true,
      "inputs": [],
      "name": "owner",
      "outputs": [
        {
          "name": "",
          "type": "address"
        }
      ],
      "payable": false,
      "stateMutability": "view",
      "type": "function"
    },
    {
      "constant": true,
      "inputs": [
        {
          "name": "",
          "type": "uint256"
        }
      ],
      "name": "projectDetails",
      "outputs": [
        {
          "name": "name",
          "type": "string"
        },
        {
          "name": "enterprise",
          "type": "string"
        },
        {
          "name": "description",
          "type": "string"
        },
        {
          "name": "bidCount",
          "type": "uint256"
        },
        {
          "name": "enterprisenumber",
          "type": "uint256"
        },
        {
          "name": "projectId",
          "type": "uint256"
        }
      ],
      "payable": false,
      "stateMutability": "view",
      "type": "function"
    },
    {
      "constant": true,
      "inputs": [
        {
          "name": "",
          "type": "uint256"
        }
      ],
      "name": "sponsors",
      "outputs": [
        {
          "name": "",
          "type": "address"
        }
      ],
      "payable": false,
      "stateMutability": "view",
      "type": "function"
    },
    {
      "constant": true,
      "inputs": [
        {
          "name": "",
          "type": "address"
        }
      ],
      "name": "sponsorDetails",
      "outputs": [
        {
          "name": "sponsorAddress",
          "type": "address"
        },
        {
          "name": "name",
          "type": "string"
        },
        {
          "name": "ID",
          "type": "string"
        },
        {
          "name": "enterprisenumber",
          "type": "uint256"
        },
        {
          "name": "hasBid",
          "type": "bool"
        },
        {
          "name": "isVerified",
          "type": "bool"
        }
      ],
      "payable": false,
      "stateMutability": "view",
      "type": "function"
    },
    {
      "inputs": [],
      "payable": false,
      "stateMutability": "nonpayable",
      "type": "constructor"
    },
    {
      "constant": true,
      "inputs": [],
      "name": "getOwner",
      "outputs": [
        {
          "name": "",
          "type": "address"
        }
      ],
      "payable": false,
      "stateMutability": "view",
      "type": "function"
    },
    {
      "constant": false,
      "inputs": [
        {
          "name": "_name",
          "type": "string"
        },
        {
          "name": "_enterprise",
          "type": "string"
        },
        {
          "name": "_description",
          "type": "string"
        },
        {
          "name": "_enterprisenumber",
          "type": "uint256"
        }
      ],
      "name": "addProject",
      "outputs": [],
      "payable": false,
      "stateMutability": "nonpayable",
      "type": "function"
    },
    {
      "constant": true,
      "inputs": [],
      "name": "getProjectNumber",
      "outputs": [
        {
          "name": "",
          "type": "uint256"
        }
      ],
      "payable": false,
      "stateMutability": "view",
      "type": "function"
    },
    {
      "constant": false,
      "inputs": [
        {
          "name": "_name",
          "type": "string"
        },
        {
          "name": "_ID",
          "type": "string"
        },
        {
          "name": "_enterprisenumber",
          "type": "uint256"
        }
      ],
      "name": "requestSponsor",
      "outputs": [],
      "payable": false,
      "stateMutability": "nonpayable",
      "type": "function"
    },
    {
      "constant": true,
      "inputs": [],
      "name": "getSponsorCount",
      "outputs": [
        {
          "name": "",
          "type": "uint256"
        }
      ],
      "payable": false,
      "stateMutability": "view",
      "type": "function"
    },
    {
      "constant": false,
      "inputs": [
        {
          "name": "_address",
          "type": "address"
        }
      ],
      "name": "verifySponsor",
      "outputs": [],
      "payable": false,
      "stateMutability": "nonpayable",
      "type": "function"
    },
    {
      "constant": false,
      "inputs": [
        {
          "name": "projectId",
          "type": "uint256"
        }
      ],
      "name": "bid",
      "outputs": [],
      "payable": false,
      "stateMutability": "nonpayable",
      "type": "function"
    },
    {
      "constant": false,
      "inputs": [],
      "name": "startBiding",
      "outputs": [],
      "payable": false,
      "stateMutability": "nonpayable",
      "type": "function"
    },
    {
      "constant": false,
      "inputs": [],
      "name": "endBiding",
      "outputs": [],
      "payable": false,
      "stateMutability": "nonpayable",
      "type": "function"
    },
    {
      "constant": true,
      "inputs": [],
      "name": "getStart",
      "outputs": [
        {
          "name": "",
          "type": "bool"
        }
      ],
      "payable": false,
      "stateMutability": "view",
      "type": "function"
    },
    {
      "constant": true,
      "inputs": [],
      "name": "getEnd",
      "outputs": [
        {
          "name": "",
          "type": "bool"
        }
      ],
      "payable": false,
      "stateMutability": "view",
      "type": "function"
    }
  ],
  "bytecode": "0x6060604052341561000f57600080fd5b336000806101000a81548173ffffffffffffffffffffffffffffffffffffffff021916908373ffffffffffffffffffffffffffffffffffffffff160217905550600060018190555060006002819055506000600360006101000a81548160ff0219169083151502179055506000600360016101000a81548160ff0219169083151502179055506111ed806100a46000396000f300606060405236156100d8576000357c0100000000000000000000000000000000000000000000000000000000900463ffffffff168062c2527b146100dd57806303f501041461010657806320943f7a1461011b578063387be81114610207578063454a2ab31461021c578063893d20e81461023f5780638b6bc93a146102945780638da5cb5b146102cd5780638dd91a561461032257806393066b4c146105025780639f05a36d14610565578063aa56201914610592578063af5a4e471461073a578063b98171d3146107e3578063c5292c671461080c575b600080fd5b34156100e857600080fd5b6100f0610839565b6040518082815260200191505060405180910390f35b341561011157600080fd5b610119610843565b005b341561012657600080fd5b610205600480803590602001908201803590602001908080601f0160208091040260200160405190810160405280939291908181526020018383808284378201915050505050509190803590602001908201803590602001908080601f0160208091040260200160405190810160405280939291908181526020018383808284378201915050505050509190803590602001908201803590602001908080601f016020809104026020016040519081016040528093929190818152602001838380828437820191505050505050919080359060200190919050506108d6565b005b341561021257600080fd5b61021a610a11565b005b341561022757600080fd5b61023d6004808035906020019091905050610aa4565b005b341561024a57600080fd5b610252610c2f565b604051808273ffffffffffffffffffffffffffffffffffffffff1673ffffffffffffffffffffffffffffffffffffffff16815260200191505060405180910390f35b341561029f57600080fd5b6102cb600480803573ffffffffffffffffffffffffffffffffffffffff16906020019091905050610c58565b005b34156102d857600080fd5b6102e0610d11565b604051808273ffffffffffffffffffffffffffffffffffffffff1673ffffffffffffffffffffffffffffffffffffffff16815260200191505060405180910390f35b341561032d57600080fd5b6103436004808035906020019091905050610d36565b6040518080602001806020018060200187815260200186815260200185815260200184810384528a8181546001816001161561010002031660029004815260200191508054600181600116156101000203166002900480156103e65780601f106103bb576101008083540402835291602001916103e6565b820191906000526020600020905b8154815290600101906020018083116103c957829003601f168201915b50508481038352898181546001816001161561010002031660029004815260200191508054600181600116156101000203166002900480156104695780601f1061043e57610100808354040283529160200191610469565b820191906000526020600020905b81548152906001019060200180831161044c57829003601f168201915b50508481038252888181546001816001161561010002031660029004815260200191508054600181600116156101000203166002900480156104ec5780601f106104c1576101008083540402835291602001916104ec565b820191906000526020600020905b8154815290600101906020018083116104cf57829003601f168201915b5050995050505050505050505060405180910390f35b341561050d57600080fd5b6105236004808035906020019091905050610d6f565b604051808273ffffffffffffffffffffffffffffffffffffffff1673ffffffffffffffffffffffffffffffffffffffff16815260200191505060405180910390f35b341561057057600080fd5b610578610dae565b604051808215151515815260200191505060405180910390f35b341561059d57600080fd5b6105c9600480803573ffffffffffffffffffffffffffffffffffffffff16906020019091905050610dc5565b604051808773ffffffffffffffffffffffffffffffffffffffff1673ffffffffffffffffffffffffffffffffffffffff168152602001806020018060200186815260200185151515158152602001841515151581526020018381038352888181546001816001161561010002031660029004815260200191508054600181600116156101000203166002900480156106a25780601f10610677576101008083540402835291602001916106a2565b820191906000526020600020905b81548152906001019060200180831161068557829003601f168201915b50508381038252878181546001816001161561010002031660029004815260200191508054600181600116156101000203166002900480156107255780601f106106fa57610100808354040283529160200191610725565b820191906000526020600020905b81548152906001019060200180831161070857829003601f168201915b50509850505050505050505060405180910390f35b341561074557600080fd5b6107e1600480803590602001908201803590602001908080601f0160208091040260200160405190810160405280939291908181526020018383808284378201915050505050509190803590602001908201803590602001908080601f01602080910402602001604051908101604052809392919081815260200183838082843782019150505050505091908035906020019091905050610e39565b005b34156107ee57600080fd5b6107f6611015565b6040518082815260200191505060405180910390f35b341561081757600080fd5b61081f61101f565b604051808215151515815260200191505060405180910390f35b6000600254905090565b6000809054906101000a900473ffffffffffffffffffffffffffffffffffffffff1673ffffffffffffffffffffffffffffffffffffffff163373ffffffffffffffffffffffffffffffffffffffff1614151561089e57600080fd5b6001600360006101000a81548160ff0219169083151502179055506000600360016101000a81548160ff021916908315150217905550565b6108de611036565b6000809054906101000a900473ffffffffffffffffffffffffffffffffffffffff1673ffffffffffffffffffffffffffffffffffffffff163373ffffffffffffffffffffffffffffffffffffffff1614151561093957600080fd5b60c06040519081016040528086815260200185815260200184815260200160008152602001838152602001600154815250905080600460006001548152602001908152602001600020600082015181600001908051906020019061099e92919061107f565b5060208201518160010190805190602001906109bb92919061107f565b5060408201518160020190805190602001906109d892919061107f565b50606082015181600301556080820151816004015560a08201518160050155905050600180600082825401925050819055505050505050565b6000809054906101000a900473ffffffffffffffffffffffffffffffffffffffff1673ffffffffffffffffffffffffffffffffffffffff163373ffffffffffffffffffffffffffffffffffffffff16141515610a6c57600080fd5b6001600360016101000a81548160ff0219169083151502179055506000600360006101000a81548160ff021916908315150217905550565b60001515600660003373ffffffffffffffffffffffffffffffffffffffff1673ffffffffffffffffffffffffffffffffffffffff16815260200190815260200160002060040160009054906101000a900460ff161515141515610b0657600080fd5b60011515600660003373ffffffffffffffffffffffffffffffffffffffff1673ffffffffffffffffffffffffffffffffffffffff16815260200190815260200160002060040160019054906101000a900460ff161515141515610b6857600080fd5b60011515600360009054906101000a900460ff161515141515610b8a57600080fd5b60001515600360019054906101000a900460ff161515141515610bac57600080fd5b600160046000838152602001908152602001600020600301600082825401925050819055506001600660003373ffffffffffffffffffffffffffffffffffffffff1673ffffffffffffffffffffffffffffffffffffffff16815260200190815260200160002060040160006101000a81548160ff02191690831515021790555050565b60008060009054906101000a900473ffffffffffffffffffffffffffffffffffffffff16905090565b6000809054906101000a900473ffffffffffffffffffffffffffffffffffffffff1673ffffffffffffffffffffffffffffffffffffffff163373ffffffffffffffffffffffffffffffffffffffff16141515610cb357600080fd5b6001600660008373ffffffffffffffffffffffffffffffffffffffff1673ffffffffffffffffffffffffffffffffffffffff16815260200190815260200160002060040160016101000a81548160ff02191690831515021790555050565b6000809054906101000a900473ffffffffffffffffffffffffffffffffffffffff1681565b60046020528060005260406000206000915090508060000190806001019080600201908060030154908060040154908060050154905086565b600581815481101515610d7e57fe5b90600052602060002090016000915054906101000a900473ffffffffffffffffffffffffffffffffffffffff1681565b6000600360019054906101000a900460ff16905090565b60066020528060005260406000206000915090508060000160009054906101000a900473ffffffffffffffffffffffffffffffffffffffff1690806001019080600201908060030154908060040160009054906101000a900460ff16908060040160019054906101000a900460ff16905086565b610e416110ff565b60c0604051908101604052803373ffffffffffffffffffffffffffffffffffffffff16815260200185815260200184815260200183815260200160001515815260200160001515815250905080600660003373ffffffffffffffffffffffffffffffffffffffff1673ffffffffffffffffffffffffffffffffffffffff16815260200190815260200160002060008201518160000160006101000a81548173ffffffffffffffffffffffffffffffffffffffff021916908373ffffffffffffffffffffffffffffffffffffffff1602179055506020820151816001019080519060200190610f3092919061107f565b506040820151816002019080519060200190610f4d92919061107f565b506060820151816003015560808201518160040160006101000a81548160ff02191690831515021790555060a08201518160040160016101000a81548160ff02191690831515021790555090505060058054806001018281610faf919061115c565b9160005260206000209001600033909190916101000a81548173ffffffffffffffffffffffffffffffffffffffff021916908373ffffffffffffffffffffffffffffffffffffffff16021790555050600160026000828254019250508190555050505050565b6000600154905090565b6000600360009054906101000a900460ff16905090565b60c06040519081016040528061104a611188565b8152602001611057611188565b8152602001611064611188565b81526020016000815260200160008152602001600081525090565b828054600181600116156101000203166002900490600052602060002090601f016020900481019282601f106110c057805160ff19168380011785556110ee565b828001600101855582156110ee579182015b828111156110ed5782518255916020019190600101906110d2565b5b5090506110fb919061119c565b5090565b60c060405190810160405280600073ffffffffffffffffffffffffffffffffffffffff168152602001611130611188565b815260200161113d611188565b8152602001600081526020016000151581526020016000151581525090565b81548183558181151161118357818360005260206000209182019101611182919061119c565b5b505050565b602060405190810160405280600081525090565b6111be91905b808211156111ba5760008160009055506001016111a2565b5090565b905600a165627a7a7230582059a082518bcb9dba51b9e0e7e25afd221d6993a2e34c3770cb5f68adb0e9c9f30029",
  "source": "pragma solidity ^0.4.17;\n\ncontract SCeleitaContract {\n\n    address public owner;\n    uint projectCount;\n\n    uint sponsorCount;\n\n    bool start;\n    bool end;\n\n    // Constructor\n    function SCeleitaContract() public {\n        owner = msg.sender;\n        projectCount = 0;\n        sponsorCount = 0;\n        start = false;\n        end = false;\n    }\n\n    function getOwner() public view returns(address) {\n        return owner;\n    }\n\n    // Only Admin can access\n    modifier onlyAdmin() {\n        require(msg.sender == owner);\n        _;\n    }\n\n    struct Project{\n        string name;\n        string enterprise;\n        string description;\n        uint bidCount;\n        uint enterprisenumber;\n        uint projectId;\n    }\n\n    mapping(uint => Project) public projectDetails;\n\n    // Only admin can add projects\n    function addProject(string _name, string _enterprise, string _description, uint _enterprisenumber) public onlyAdmin {\n        Project memory newProject = Project({\n           name : _name,\n           enterprise : _enterprise,\n           description : _description,\n           bidCount : 0,\n           enterprisenumber : _enterprisenumber,\n           projectId : projectCount\n        });\n\n        projectDetails[projectCount] = newProject;\n        projectCount += 1;\n    }\n\n    // get total number of projects\n    function getProjectNumber() public view returns (uint) {\n        return projectCount;\n    }\n\n    struct Sponsor{\n        address sponsorAddress;\n        string name;\n        string ID;\n        uint enterprisenumber;\n        bool hasBid;\n        bool isVerified;\n    }\n\n    address[] public sponsors;\n    mapping(address => Sponsor) public sponsorDetails;\n\n    // request to be added as sponsor\n    function requestSponsor(string _name, string _ID, uint _enterprisenumber) public {\n        Sponsor memory newSponsor = Sponsor({\n           sponsorAddress : msg.sender,\n           name : _name,\n           ID : _ID,\n           enterprisenumber : _enterprisenumber,\n           hasBid : false,\n           isVerified : false\n        });\n\n        sponsorDetails[msg.sender] = newSponsor;\n        sponsors.push(msg.sender);\n        sponsorCount += 1;\n    }\n\n    // get total number of sponsor\n    function getSponsorCount() public view returns (uint) {\n        return sponsorCount;\n    }\n\n    function verifySponsor(address _address) public onlyAdmin {\n        sponsorDetails[_address].isVerified = true;\n    }\n\n    function bid(uint projectId) public{\n        require(sponsorDetails[msg.sender].hasBid == false);\n        require(sponsorDetails[msg.sender].isVerified == true);\n        require(start == true);\n        require(end == false);\n\n        projectDetails[projectId].bidCount += 1;\n        sponsorDetails[msg.sender].hasBid = true;\n    }\n\n    function startBiding() public onlyAdmin {\n        start = true;\n        end = false;\n    }\n\n    function endBiding() public onlyAdmin {\n        end = true;\n        start = false;\n    }\n\n    function getStart() public view returns (bool) {\n        return start;\n    }\n\n    function getEnd() public view returns (bool) {\n        return end;\n    }\n}",
  "sourcePath": "/home/ion/Downloads/DAAR3/V3.3/contracts/SCeleitaContract.sol",
  "compiler": {
    "name": "solc",
    "version": "0.4.17+commit.bdeb9e52.Emscripten.clang"
  },
  "schemaVersion": "3.4.3",
  "updatedAt": "2021-11-28T13:57:15.306Z",
  "networkType": "ethereum",
  "devdoc": {
    "methods": {}
  },
  "userdoc": {
    "methods": {}
  }
}